:100000000C942A000C9434000C9434000C943400AA
:100010000C9434000C9434000C9434000C94340090
:100020000C9434000C9434000C9434000C94340080
:100030000C9434000C9434000C9434000C94340070
:100040000C9434000C9434000C9434000C94340060
:100050000C94340011241FBECFE5D4E0DEBFCDBF29
:100060000E9436000C945D000C9400008FEF8ABB58
:1000700087BB84BB81BB8A984CE251E02FEF829B07
:1000800017C01BBA18BA15BA12BA88EB9BE0FA016E
:100090003197F1F70197D9F72BBB28BB25BB22BBC2
:1000A00088EB9BE0FA013197F1F70197D9F7E7CF99
:0E00B0001BBA18BA15BA12BAE2CFF894FFCFF5
:00000001FF
