:100000000C942A000C9434000C9434000C943400AA
:100010000C9434000C9434000C9434000C94340090
:100020000C9434000C9434000C9434000C94340080
:100030000C9434000C9434000C9434000C94340070
:100040000C9434000C9434000C9434000C94340060
:100050000C94340011241FBECFE5D4E0DEBFCDBF29
:100060000E9436000C944A000C940000D09AD19A59
:1000700051E042E02CE231E08BB385278BBB8BB3A0
:1000800084278BBB88E293E2F9013197F1F701975E
:08009000D9F7F2CFF894FFCF7D
:00000001FF
